:1000000018C030C02FC02EC02DC02CC02BC02AC09D
:1000100029C028C027C026C025C024C023C022C0B4
:1000200021C099C0D8C1E0C169C126C13CC153C13A
:10003000BFC011241FBECFEDCDBF10E0A0E6B0E0E1
:10004000EAE6F6E002C005900D92A436B107D9F7B2
:1000500010E0A4E6B0E001C01D92A33CB107E1F7B7
:100060002ED001C3CDCFD99ADA9AB99AB89AD39A39
:10007000D09ADD9AD49ADCD216BEC09ADB9AC19887
:1000800084EF91E028EC30E0F9013197F1F7019726
:10009000D9F7C19A84EF91E028EC30E0F90131976B
:1000A000F1F70197D9F7C19888EE93E028EC30E09A
:1000B000F9013197F1F70197D9F7C19A08952F9275
:1000C0003F924F925F926F927F928F929F92AF92E8
:1000D000BF92CF92DF92EF92FF920F931F93CF9335
:1000E000DF93C1DF9090750070916E00D0906D002D
:1000F000C0906F00A0907000B090710080907A0066
:1001000055245394C8ECD0E0F4E64F2EE0ED6E2E6B
:10011000E7E07E2E61E0262E312C0894A11CB11C54
:1001200089B390E082709070969587958093800057
:1001300089B390E084709070959587959595879593
:10014000982F80917D00E82FF0E0E830F10528F746
:10015000EF5EFF4F099480918000882341F423E0F3
:1001600020937D0010927F0010927E00D6CF9923BD
:1001700029F484E080937D008824CFCFCC2009F43B
:1001800078C020E6A2162AEEB20609F072C080916D
:100190007800853029F487E080937D001092780004
:1001A000809178008F5F80937800AA24BB24B5CF1C
:1001B000D898C3010197F1F740E050E02FE030E01C
:1001C000DC98C3010197F1F7CD9B09C0C101022E54
:1001D00002C0880F991F0A94E2F7482B592BDC9A2A
:1001E000C3010197F1F7215030408FEF2F3F3807BF
:1001F00039F780ED97E00197F1F7D89A42FD02C0F8
:10020000992412C0939423E0921671F4C098DB985D
:1002100080E29EE4FE013197F1F70197D9F7C09A89
:10022000DB9A16BE9924CC24CA0133E096958795B3
:100230003A95E1F72AE08832920788F469E170E0A4
:1002400000D28C57954140F0ED2DF0E0E05AFF4F81
:10025000808186BF71E004C016BE70E001C016BE8A
:10026000DB9888EE93E0FE013197F1F70197D9F71B
:10027000DB9A10927D0051CF992349F4839484EF47
:1002800091E0FE013197F1F70197D9F746CF8EE063
:10029000881510F426E004C082E0881550F725E0A8
:1002A00020937D003ACF8D2D90E0029714F0DD244D
:1002B00001C0D394772331F0ED2DF0E0E05AFF4FE9
:1002C000808186BFC19888EE93E0FE013197F1F7F7
:1002D0000197D9F784C1752519F046BEDD2401C008
:1002E00016BEC19888EE93E0FE013197F1F70197B1
:1002F000D9F7C19A10927D00CC240FCF8091800055
:10030000882351F480917E0090917F000196909314
:100310007F0080937E0006C010927D0010927F00C7
:1003200010927E0080917E0090917F00C29709F02C
:10033000F4CE81E080937D0010927F0010927E00C9
:100340001092800010928200E8CE89B390E0827013
:100350009070969587958093800090918000809111
:100360008100981739F480917E0090917F00885821
:10037000934121F580917E0090917F0089589341AF
:1003800070F480917E0090917F00893C910538F057
:10039000E0918200F0E0ED57FF4F508206C0E091FF
:1003A0008200F0E0ED57FF4F1082809182008F5F56
:1003B0008093820010927F0010927E0080917E00D8
:1003C00090917F00019690937F0080937E008091B2
:1003D00080008093810080918200803408F4B5CF42
:1003E00082E080937D0099CE1092820060E0EE243E
:1003F000FF24870120E030E040E050E050C08091D1
:1004000082008032B0F4E0918200F0E0ED57FF4FBF
:10041000808190E0062E02C0880F991F0A94E2F7AF
:10042000AA2797FDA095BA2FE82AF92A0A2B1B2B99
:100430002AC080918200803289F4E0918200F0E04D
:10044000ED57FF4F808190E0AA2797FDA095BA2F26
:10045000282B392B4A2B5B2B60E016C0E0918200E1
:10046000F0E0ED57FF4F808190E0062E02C0880F2C
:10047000991F0A94E2F7AA2797FDA095BA2F282B77
:10048000392B4A2B5B2B6F5FE0918200F0E0ED5738
:10049000FF4F1082809182008F5F80938200809155
:1004A0008200803408F4ABCF83E0E816F104010544
:1004B000110539F086E0E816F1040105110509F08F
:1004C000D8CE213184E0380780E0480780E0580723
:1004D00009F452C0223184E0380780E0480780E008
:1004E000580790F4213031054105510508F479C0D1
:1004F000233031054105510570F121503440404011
:10050000504009F06EC04EC0223088E0380780E0CD
:10051000480780E0580709F445C0233088E03807D1
:1005200080E0480780E0580738F4215135404040CA
:10053000504009F056C04AC0223288E0380780E0B7
:10054000480780E05807C1F022523A4040405040EE
:1005500009F047C03BC0752519F046BEDD2401C037
:1005600016BEC19888EE93E0FE013197F1F701972E
:10057000D9F7C19ACC247DCE8D2D90E002974CF412
:10058000772339F0D394ED2DF0E0E05AFF4F8081CE
:1005900086BFC19888EE93E0FE013197F1F701978D
:1005A000D9F71DC01D144CF4772339F0DA94ED2DE2
:1005B000F0E0E05AFF4F808186BFC19888EE93E05B
:1005C000FE013197F1F70197D9F709C0C524C19809
:1005D00088EE93E0FE013197F1F70197D9F7C19AC0
:1005E00048CEC09888EE93E0FE013197F1F701976D
:1005F000D9F7C09A3ECE282F8FB7F8949AE0EBB384
:10060000EF7BEBBB00000000000000000000EDEC01
:10061000F0E03197F1F70000EBB320FDE06420FF3C
:10062000EF7BEBBB089427959A9589F78FBF0895C8
:1006300080B7816A80BF83B7826083BFD79ABA9A36
:1006400008955527002480FF02C0060E571F660F2D
:10065000771F6115710521F096958795009799F799
:0A066000952F802D0895F894FFCF28
:04066A0064AFFF007A
:00000001FF
